{
  "transactions": [
    {
      "hash": "0x33d5cbe3dfa723c1c2ad6e85bf6d6cdecfc2e964f040b95a249ec41e9fc38ed9",
      "transactionType": "CALL",
      "contractName": null,
      "contractAddress": "0xa46a6e492a3a5a7bcfad668e5ed7fe304c0c00df",
      "function": "executeBatch((address,uint256,bytes,bool)[],bool)",
      "arguments": [
        "[(0x3f15c5C404A21439C6f8cC75BC3652c03833B277, 0, 0xd09de08a, true), (0x3f15c5C404A21439C6f8cC75BC3652c03833B277, 0, 0x55241077000000000000000000000000000000000000000000000000000000000000000a, true)]",
        "false"
      ],
      "transaction": {
        "from": "0xc9dc9c361c248ffa0890d7e1a263247670914980",
        "to": "0xa46a6e492a3a5a7bcfad668e5ed7fe304c0c00df",
        "gas": "0x2b6e0",
        "value": "0x0",
        "input": "0xb091e253000000000000000000000000000000000000000000000000000000000000004000000000000000000000000000000000000000000000000000000000000000000000000000000000000000000000000000000000000000000000000000000002000000000000000000000000000000000000000000000000000000000000004000000000000000000000000000000000000000000000000000000000000001000000000000000000000000003f15c5c404a21439c6f8cc75bc3652c03833b2770000000000000000000000000000000000000000000000000000000000000000000000000000000000000000000000000000000000000000000000000000008000000000000000000000000000000000000000000000000000000000000000010000000000000000000000000000000000000000000000000000000000000004d09de08a000000000000000000000000000000000000000000000000000000000000000000000000000000003f15c5c404a21439c6f8cc75bc3652c03833b277000000000000000000000000000000000000000000000000000000000000000000000000000000000000000000000000000000000000000000000000000000800000000000000000000000000000000000000000000000000000000000000001000000000000000000000000000000000000000000000000000000000000002455241077000000000000000000000000000000000000000000000000000000000000000a00000000000000000000000000000000000000000000000000000000",
        "nonce": "0x3",
        "chainId": "0x1f"
      },
      "additionalContracts": [],
      "isFixedGasLimit": false
    }
  ],
  "receipts": [
    {
      "status": "0x1",
      "cumulativeGasUsed": "0x1a6c3d",
      "logs": [
        {
          "address": "0x3f15c5c404a21439c6f8cc75bc3652c03833b277",
          "topics": [
            "0x38ac789ed44572701765277c4d0970f2db1c1a571ed39e84358095ae4eaa5420"
          ],
          "data": "0x000000000000000000000000a46a6e492a3a5a7bcfad668e5ed7fe304c0c00df0000000000000000000000000000000000000000000000000000000000000001",
          "blockHash": "0x41c0a0b19ea7bb641cbbb5963e0b0c34f4a1d9ee9b8ec073670c765471d05e76",
          "blockNumber": "0x68c426",
          "transactionHash": "0x33d5cbe3dfa723c1c2ad6e85bf6d6cdecfc2e964f040b95a249ec41e9fc38ed9",
          "transactionIndex": "0x3",
          "logIndex": "0x0",
          "removed": false
        },
        {
          "address": "0xa46a6e492a3a5a7bcfad668e5ed7fe304c0c00df",
          "topics": [
            "0xd338b578b423954066ecb105b74fbf39e0c33b46b5c5c89116fa89ffa7eb8abe",
            "0x0000000000000000000000003f15c5c404a21439c6f8cc75bc3652c03833b277"
          ],
          "data": "0x0000000000000000000000000000000000000000000000000000000000000000000000000000000000000000000000000000000000000000000000000000000100000000000000000000000000000000000000000000000000000000000000600000000000000000000000000000000000000000000000000000000000000000",
          "blockHash": "0x41c0a0b19ea7bb641cbbb5963e0b0c34f4a1d9ee9b8ec073670c765471d05e76",
          "blockNumber": "0x68c426",
          "transactionHash": "0x33d5cbe3dfa723c1c2ad6e85bf6d6cdecfc2e964f040b95a249ec41e9fc38ed9",
          "transactionIndex": "0x3",
          "logIndex": "0x1",
          "removed": false
        },
        {
          "address": "0x3f15c5c404a21439c6f8cc75bc3652c03833b277",
          "topics": [
            "0x38ac789ed44572701765277c4d0970f2db1c1a571ed39e84358095ae4eaa5420"
          ],
          "data": "0x000000000000000000000000a46a6e492a3a5a7bcfad668e5ed7fe304c0c00df000000000000000000000000000000000000000000000000000000000000000a",
          "blockHash": "0x41c0a0b19ea7bb641cbbb5963e0b0c34f4a1d9ee9b8ec073670c765471d05e76",
          "blockNumber": "0x68c426",
          "transactionHash": "0x33d5cbe3dfa723c1c2ad6e85bf6d6cdecfc2e964f040b95a249ec41e9fc38ed9",
          "transactionIndex": "0x3",
          "logIndex": "0x2",
          "removed": false
        },
        {
          "address": "0xa46a6e492a3a5a7bcfad668e5ed7fe304c0c00df",
          "topics": [
            "0xd338b578b423954066ecb105b74fbf39e0c33b46b5c5c89116fa89ffa7eb8abe",
            "0x0000000000000000000000003f15c5c404a21439c6f8cc75bc3652c03833b277"
          ],
          "data": "0x0000000000000000000000000000000000000000000000000000000000000000000000000000000000000000000000000000000000000000000000000000000100000000000000000000000000000000000000000000000000000000000000600000000000000000000000000000000000000000000000000000000000000000",
          "blockHash": "0x41c0a0b19ea7bb641cbbb5963e0b0c34f4a1d9ee9b8ec073670c765471d05e76",
          "blockNumber": "0x68c426",
          "transactionHash": "0x33d5cbe3dfa723c1c2ad6e85bf6d6cdecfc2e964f040b95a249ec41e9fc38ed9",
          "transactionIndex": "0x3",
          "logIndex": "0x3",
          "removed": false
        },
        {
          "address": "0xa46a6e492a3a5a7bcfad668e5ed7fe304c0c00df",
          "topics": [
            "0xca81223dee601f44c44ce11d952c9f947da2bb8f802f2fc0928e836f42a8cebf",
            "0x000000000000000000000000c9dc9c361c248ffa0890d7e1a263247670914980"
          ],
          "data": "0x000000000000000000000000000000000000000000000000000000000000000100000000000000000000000000000000000000000000000000000000000000020000000000000000000000000000000000000000000000000000000000000002",
          "blockHash": "0x41c0a0b19ea7bb641cbbb5963e0b0c34f4a1d9ee9b8ec073670c765471d05e76",
          "blockNumber": "0x68c426",
          "transactionHash": "0x33d5cbe3dfa723c1c2ad6e85bf6d6cdecfc2e964f040b95a249ec41e9fc38ed9",
          "transactionIndex": "0x3",
          "logIndex": "0x4",
          "removed": false
        }
      ],
      "logsBloom": "0x00000000004000000000400000000000000000000000000000000000000000000000000000000000000000000008000000000000001000002800000000000000000002004000000000000000000000000000000000000000000000000000000000000000000000200000000000000000000000000000000000000000000000000000000000000000000000080000000000000000000000000000000000000000800000000000000000000000000000800000000000000000000000000000401400000008000000000000000000000000000000020000000000000008000000000000000000000000000000000000000000000001000020000000000000000800",
      "type": "0x0",
      "transactionHash": "0x33d5cbe3dfa723c1c2ad6e85bf6d6cdecfc2e964f040b95a249ec41e9fc38ed9",
      "transactionIndex": "0x3",
      "blockHash": "0x41c0a0b19ea7bb641cbbb5963e0b0c34f4a1d9ee9b8ec073670c765471d05e76",
      "blockNumber": "0x68c426",
      "gasUsed": "0x1e099",
      "effectiveGasPrice": "0x14d1fde",
      "from": "0xc9dc9c361c248ffa0890d7e1a263247670914980",
      "to": "0xa46a6e492a3a5a7bcfad668e5ed7fe304c0c00df",
      "contractAddress": null
    }
  ],
  "libraries": [],
  "pending": [],
  "returns": {},
  "timestamp": 1758901555,
  "chain": 31,
  "commit": "4da0af4"
}